:400000000080002011000000690400006904000008B5044B1A6803F53F5302331A6000F043FA00BFFA46004010B5054C237833B9044B13B10448AFF300800123237010BD60
:400040004881FF1F0000000024250000084B10B51BB108490848AFF300800848036803B910BD074B002BFBD0BDE81040184700BF000000004C81FF1F24250000C880FF1F70
:400080000000000008B500F0A1FC034B4042188001225A8008BD00BF6481FF1F08B500F073FE08BD30B585B062B6524800F010FD514800F001FE00F059FE00F0FDFC00F0B6
:4000C000B5FC00F0CFFA00F08FFD00F02DFC0C2000F0DEFB00F0E8FB00F01CFC00F04CFB0021084600F02EFC012000F003FB012000F0C2FD012000F031FA012000F0FAFA51
:400100003E4B93E803000190ADF80810012000F0BFFB00F031FB0021084600F013FC01A800F0A8FB002500F00FFD0446344B5B88012B4CD1012000F0ABFC314B00225A8093
:400140001B88304DA5FB03352D09632D02D8012000F092FD2C4A01AB07CA03C31A80012000F096FB00F008FB0021084600F0EAFB01A800F07FFB00F09BFA00F05BFD00F04B
:400180007DFC01F021FA4021002001F04FFC01F027FB00F0A3FA00F063FD00F075FC1B4B93E8030001908DF80810012000F070FB00F0E2FA0021084600F0C4FB01A800F09B
:4001C00059FB012000F0CAF9012000F093FA2B4622460F4901A801F081FD012000F058FB00F0CAFA0021084600F0ACFB01A800F041FB98E7850000009D000000282500000F
:400200006481FF1FB5814E1B302500003C25000044250000FEE700BFF0B40022174611E050F82760F3B226F0FF0608E001EB420511F812406D78A5550132013BDBB2002B3A
:40024000F4D10137142FEBD9F0BC7047064B1B78DBB203F00701054A11701B09013213704422034B1A707047CF0100496E5800407658004008B50A46002101F026FD08BDD8
:4002800038B505222A4B1A8018232A4A13701721023211800232137040F2E732264B1A801B2202331A70022203F276231A7008224FF040231A70032103F5007319701F4BCF
:4002C0001B78DBB21E490B701E4B1A8041F25122023B1A80002419250CE01B4B1B7803F0010343EA440404F003044FF4F07001F067FC013D0DB1032CEFD115B90320FFF705
:4003000089FF124B4FF480721A8007221A7000220F490A704820023108701A700222033B1A700C4A137843F00703137038BD00BF8040004082400040884000400801004928
:40034000A146004022420040254200400440004006400040A243004008B501F0ABFC08BD38B572B62E4A137843F00403137000240CE02C4D630019194A0011462A44084672
:4003800091882858FFF776FF0134E4B2072CF0D925494FF09040FFF73FFF244A244B1A60244A03F500731A60234A137843F0020313701032137843F0020313701F4C2378D6
:4003C00043F040032370A2F58632513A137843F01003137008221A491A48FFF7BDFF082219491A48FFF7B8FF082219491948FFF7B3FF194A137843F008031370174D61235E
:400400002B70FFF73DFF81232B700122144B1A70FFF71CFF0E2221461248FFF79DFF38BDE84600405425000054000048040404C4D80201400404008403500140A04300406A
:400440009803004802510040A003004812510040A803004822510040224300400048004004000840B043004008B501F0F7FB03680C2B00D1FEE7FEE708B5094B1A68104462
:40048000084BC31A802B02DC054B186005E001F0E5FB0C2303604FF0FF32104608BD00BFCC80FF1FD881FF1F08B5104E104D16E029686B68AC68002204E051F8040B43F8C9
:4004C000040B0432A242F8D1E868002203E0002143F8041B04328242F9D11035013E002EE6D101F0C1FBFFF7DDFDFEE701000000EC25000008B5104A104B1A60104A1368D8
:4005000043F40073136000230AE0032B03D80D4A52F8231000E00C490C4A42F8231001332F2BF2D90A4B1A780A4B1A70074A0A4B1A60FFF715FF08BD0004FA050CED00E0D2
:4005400014ED00E000000000690400000080FF1FBC760040C080FF1F08ED00E0014B1870704700BF75640040024A137843F080031370704773640040024A137803F07F035D
:400580001370704773640040014B1870704700BF83640040014B1878704700BF63640040014B1878704700BF73640040014B1870704700BF73640040014B1870704700BF0C
:4005C00000640040024B1B78024B1878704700BF0064004040640040014B1878704700BF40640040014B1870704700BF20640040014B1870704700BF3064004008B501E09C
:40060000FFF7EAFFFFF7C6FF10F0400FF8D108BD08B5124A137803F0F80343F001031370137803F0FC031370FFF7E8FF0920FFF7D9FF0020FFF7C0FF0020FFF7A5FFFFF79E
:40064000A9FF0120FFF7D4FF01F0C2FA044A137843F01003137001F0BFFA08BD736400409364004008B5054B1B7823B9FFF7D0FF0122024B1A70FFF777FF08BD6881FF1F69
:4006800010B5FFF79FFF034C6070FFF789FFA07010BD00BF6C81FF1F10B5044C6078FFF78BFFA078FFF782FF10BD00BF6C81FF1F08B5084B1B7813F0800F03D00122064B8E
:4006C0001A7002E00022044B1A70FFF755FFFFF7D7FF08BD736400406C81FF1F08B5FFF7DBFF034B1B78012B01D1FFF73DFF08BD6C81FF1F014B1870704700BF74640040C6
:4007000010B50B4C237803F09F032370237803F0F00323702378184340F010002070012000F0EEFD237803F0EF03237010BD00BF2051004038B505460E4C237843F0200331
:400740002370237803F0BF032370002000F0D8FD237803F0F003237023781D4345F010052570012000F0CCFD237803F0EF03237038BD00BF2051004070B5354B1A7802F0B5
:400780008002D2B21A7033490A7802F0F00242F00F020A7001310A7802F0F0020A7001310A7802F0F0020A701A7802F0DF021A701A7842F040021A704FF4CA76002000F0D4
:4007C0009FFD234D2B7843F010032B70012000F097FD214B1C78E4B22B7803F0EF032B70002000F08DFD04F00804E4B22B7843F010032B70012000F083FD2B7803F0EF033E
:400800002B7014B90A2000F07BFD013E0CB1002ED4D10F4A137803F0BF031370137803F08003DBB213700232137803F0F00313700132137803F0F00343F00F0313700132FB
:40084000137803F0F00343F00F03137070BD00BF20510040225100402151004010B50446FFF78AFF2009FFF765FF04F00F00FFF761FF10BD38B505460078012404E0FFF757
:40088000EDFF285D0134E4B20028F8D138BD00BF10B50446FFF770FF2009FFF731FF04F00F00FFF72DFF10BD08B5282000F012FD0320FFF725FF052000F00CFD0320FFF72A
:4008C0001FFF0F2000F006FD0320FFF719FF012000F000FD0220FFF713FF052000F0FAFC0620FFF7D5FF0E20FFF7D2FF2C20FFF7CFFF0820FFF7CCFF0120FFF7C9FF0C205B
:40090000FFF7C6FF0320FFF7C3FF052000F0E2FC08BD00BF08B50C20FFF7BAFF0122014B1A7008BD6F81FF1F08B5054B5B7823B9FFF7BAFF0122024B5A70FFF7EBFF08BDFC
:400940006F81FF1F08B5032819D8DFE800F002070D1381F08000FFF79BFF08BDA1F14000C0B2FFF795FF08BDA1F16C00C0B2FFF78FFF08BDA1F12C00C0B2FFF789FF08BDAB
:40098000704700BF014B1870704700BF84640040014B1878704700BF6464004008B50146014801F003F908BD22640040024B186820F07F40704700BF4264004008B5014634
:4009C000014801F0F3F808BD02640040034B1B78034B186820F07F40704700BF026400404264004008B501E0FFF7E0FFFFF7D0FF10F0080FF8D108BD08B56FF07F40FFF739
:400A0000CDFF6FF07F40FFF7D9FF01F0E1F8064A137843F01003137001F0DEF8FFF7E2FF0020FFF7AFFF08BD9464004008B5044B1B7823B9FFF7E0FF0122014B1A7008BD23
:400A40007181FF1F08B5FFF7C1FF034B5860034A12781A7208BD00BF7481FF1F8464004010B5044C6068FFF7A9FF227A024B1A7010BD00BF7481FF1F8464004008B5FFF763
:400A80007FFFFFF7DFFF08BD08B5FFF7E9FF08BD014B1870704700BF72640040014B1B681864704708ED00E04001C0B2014B1870704700BF00E400E00122014B1A60704727
:400AC00000E100E00122014B1A60704780E100E010B50446FFF7F6FF2046FFF7DFFF0720FFF7E2FFFFF7E8FF10BD00BF024A137843F080031370704771640040024A137806
:400B000003F07F031370704771640040014B1870704700BF81640040014B1878704700BF61640040014B1878704700BF71640040014B1870704700BF71640040014B187091
:400B4000704700BF01640040024B1B78024B1878704700BF0164004041640040014B1878704700BF41640040014B1870704700BF21640040014B1870704700BF3164004038
:400B800008B501E0FFF7EAFFFFF7C6FF10F0400FF8D108BD08B5124A137803F0F80343F001031370137803F0FC031370FFF7E8FF0520FFF7D9FF0020FFF7C0FF0020FFF719
:400BC000A5FFFFF7A9FF0020FFF7D4FF01F000F8044A137843F01003137000F0FDFF08BD716400409164004008B5054B1B7823B9FFF7D0FF0122024B1A70FFF777FF08BDD8
:400C00008081FF1F10B5FFF79FFF034C6070FFF789FFA07010BD00BF8481FF1F10B5044C6078FFF78BFFA078FFF782FF10BD00BF8481FF1F08B5084B1B7813F0800F03D02D
:400C40000122064B1A7002E00022044B1A70FFF755FFFFF7D7FF08BD716400408481FF1F08B5FFF7DBFF034B1B78012B01D1FFF73DFF08BD8481FF1F014B1870704700BFB6
:400C800070640040014B1B685864704708ED00E04001C0B2014B1870704700BF01E400E00222014B1A60704700E100E00222014B1A60704780E100E010B50446FFF7F6FF09
:400CC0002046FFF7DFFF0720FFF7E2FFFFF7E8FF10BD00BF08B50F4B1B7813F0020F0ED100F076FF0B4A137843F0020313708232137843F00403137000F06EFF08BD00F0A8
:400D000067FF054A137843F00403137000F064FF08BD00BF004300408243004008B500F057FF044A137843F00803137000F054FF08BD00BF82430040064B1B7813F0040FF4
:400D400007D1054A137803F0F00300F00F00184310707047824300408143004008B50920FFF7EAFFFFF7DAFF08BD00BF08B5054B1B7823B9FFF7F2FF0122024B1A70FFF7D6
:400D8000A9FF08BD8781FF1F08B5022000F0C8FE08BD00BF0E4B1B7813F0070F04D10D4B1B7813F0010F0CD1094B1B7803F00703012B08D1084B1B7813F0010F05D10020FA
:400DC000704701207047002070470120704700BF93430040A5430040B54300400C4A137803F0F003137000220A4B1A700A4A137843F080031370C2B2084B1A70000A01338E
:400E00001870074A137843F001031370704700BF1440004010400040084000400240004001400040024A137803F0FE031370704720420040054A137803F0EF031370103244
:400E4000137803F0EF031370704700BFA0430040024A137843F010031370704700420040024A137803F0EF031370704700420040044A137803F0FC0300F0030018431070FC
:400E8000704700BF05400040014B1870704700BF0440004070B5054600F09AFE0646164B1A78013B1B7843EA022305B1EBB9134B1C78E4B2062C02D80720FFF7E5FF45B924
:400EC0000F4A137843F0400313702846FFF786FF07E02846FFF782FF094A137803F0BF0313702046FFF7D0FF02E02846FFF776FF304600F071FE70BD074000400440004057
:400F000008400040024A137843F004031370704700430040024A137803F0FB031370704700430040F8B5194A137843F00103137048B3174B1C7804F00404E4B280331F78B4
:400F4000FFB202331E78F6B2182000F001FE09E0104B1B7813F0010F04D00E4B1B7813F0010F07D1012000F0DBFD10F0010FEFD0102500E000250CB9FFF7CCFF064B1F7039
:400F800002331E7000E000252846F8BD20420040004300402542004080430040144A137843F0100313701032137843F010031370E0B170B50F4B1C7804F00404E4B2803346
:400FC0001E78F6B202331D78EDB2002000F0C0FD012000F0A5FD10F0010FF9D00CB9FFF799FF054B1E7002331D7070BD704700BFA04300400043004080430040F0B583B0DA
:401000008DF80700254A137843F001031370002840D0234B1E78F6B280331D78EDB202331C78E4B2182000F093FD21E01B4B1B7804238DF806300BE0012000F071FD10F048
:40104000010FF9D09DF80630013BDBB28DF806309DF8063013F0FF0FEED1104B1B7813F0800F0CD09DF80730013BDBB28DF807309DF8073013F0FF0FD8D1102700E000273C
:4010800016F0040F01D1FFF745FF064B1D7002331C7000E00027384603B0F0BD104200400043004080430040024A137803F0FE03137070471042004001BE704710B5044653
:4010C000FFF768FE012804D1254A137803F0FD031370082C3FD8DFE804F0050B11171D23293E2F001F4B1B78DBB21F4A137010BD1E4B1B78DBB21C4A137010BD1C4B1B7896
:40110000DBB2194A137010BD1A4B1B78DBB2164A137010BD184B1B78DBB2134A137010BD164B1B78DBB2104A137010BD144B1B78DBB20D4A137010BD124B1B78DBB20A4AE8
:40114000137001280AD102F5CB520832137843F00203137010BD0020FFF7AEFF10BD00BF0960004008010049A1460040090100490A0100490B010049890100490C010049F1
:401180000D0100490F01004970B506463A4B1C7804F00704082801D1032500E00546062C0BD8DFE804F0040D06080D0D0D00022406E0032404E0002402E00020FFF77CFFDD
:4011C000AC4202D83046FFF779FF082E44D8DFE806F0050D151B232B33433B00264A137803F0B80343F00303137038E0224A137803F0B80343F00103137030E01E4A137814
:4012000003F0B80313702AE01B4A137803F0B80343F00203137022E0174A137803F0B80343F0040313701AE0134A137803F0B80343F00503137012E00F4A137803F0B803EF
:4012400043F0060313700AE00B4A137803F0B80343F04203137002E00020FFF72DFF082E02D1FFF7F5FD01E0FFF7FAFDAC4202D93046FFF723FF70BD0042004008B501286D
:401280000FD0D8B102281FD14FF04022137803F0BF03137002F50072137843F02003137008BD4FF04022137843F04003137002F50072137843F02003137008BD044A137826
:4012C00003F0DF03137008BD0020FFF7F5FE08BD0042004010B5044605E0084B186800F06FFCA4F50044B4F5004FF6D8034B586800FB04F000F064FC10BD00BFD080FF1F75
:4013000008B5034B1B7A00FB03F000F059FC08BDD080FF1F2DE9F04FDFF8BCA19AF80020554B9A72DFF8B49199F80020DA72534A12781A73524A12785A73524A12789A73CD
:40134000514A1278DA73514A12781A74504A12785A74504A12789A744F4A1278DA744F4A12781A754E4A12785A754E4A12789A754D4A1278DA754D4A12781A764C4A12789E
:401380005A764C4A12789A76DFF854B19BF80020DA76DFF8508198F800201A77DFF848C19CF800205A77DFF844E19EF800209A77414F3A78DA77414E327883F82020404D29
:4013C0002A7883F821203F4C227883F822203E48027883F823203D490A7883F824203C4A127883F8252000238AF8003089F80030224A1370013213700232137002321370BF
:4014000002321370063213700232137001321370013213700232137002321370023213700632137002321370013213708BF8003088F800308CF800308EF800303B703370AF
:401440002B70237003700B7017321370214B1B7813F0080F0AD00122074B83F82F201D4A137803F0F7031370BDE8F08F0022024B83F82F20BDE8F08F8881FF1F035A0040AB
:40148000045A0040065A0040085A00400A5A0040105A0040125A0040135A0040145A0040165A0040185A00401A5A0040205A0040225A0040235A0040305A0040325A004018
:4014C000335A0040345A0040365A0040385A00403A5A004022430040005A0040025A0040245A0040265A0040285A00402A5A0040334B997A334A1170D97A02321170197BD1
:4015000001321170597B01321170997B02321170D97B02321170197C02321170597C06321170997C02321170D97C01321170197D01321170597D02321170997D0232117052
:40154000D97D02321170197E06321170597E02321170997E01321170D97E01321170197F02321170597F02321170997F02321170D97F0632117093F820100232117093F8FB
:4015800021100132117093F822100132117093F823100232117093F824100232117093F825100232117093F82F30012B06D1A2F5B852183A137843F008031370704700BFD7
:4015C0008881FF1F005A004010B5784A1378784C03F00F0384F83030764B197884F83110117801F0F00111701A7800221A7003F25E431B7803F0C00384F83530372000F033
:40160000EFFA6D4B1A7802F0070284F833201A7802F0400284F834201B7813F0100F03D0012284F8392003E00022614B83F83920624B1B7803F003035D4A82F83230012B2A
:4016400019D14FF040231B7803F00303012B07D013B1022B08D00BE00020FFF709FC0AE00220FFF705FC06E00320FFF701FC02E00020FFF721FD524B1B7813F0010F06D052
:4016800001224B4B83F83E20FFF7CCFB03E00022474B83F83E200420FFF776FD494B1B7813F0100F04D00122414B83F8362008E000203F4B83F83600FFF770FC0620FFF780
:4016C0001FFE3D4B1B7813F0200F0FD04FF040231B7813F0400F01D1022200E00122344B83F837200020FFF7C9FD03E00022304B83F837204FF040231B7803F030032C4AD1
:4017000082F838302BB14FF04022137803F0CF031370294B1B7813F0100F01D0FFF7A0FB294B1B78DBB2224A82F83A3013B10020FFF7AAFB1E4B93F8323013B10020FFF759
:4017400097FB224B1B781B02194A9387204909780B43938713B10020FFF79CFB164B1B7803F007031B4AD05C00F03AFA1A4B1B7813F0010F06D001220D4B83F83F20FFF7A8
:4017800093FC03E000220A4B83F83F20134B1B7813F0040F04D00122054B83F8402010BD0022034B83F8402010BD00BFA14300408881FF1FA2430040004200400540004022
:4017C00020420040A043004004400040074000400640004084250000104200400B40004010B582B0854B53F8080F00909A889B79ADF804208DF80630814B93F84030012B67
:4018000010D1804B1B7803F007037C4AD05C00EB8000C0EB001000F0D3F97B4A137843F004031370764B93F83F30012B1AD10020FFF7E4FB754B1B78052411E0714B1B7808
:4018400003F007036D4AD35CC82000FB03F000F0B7F96E4B1B7813F0800F03D0013CA4B2002CEBD1372000F0BBF9654B93F83230023BDBB2012B0ED8654B1B78DBB2604AF5
:4018800092F83A00834201D0FFF7FEFA5C4B93F83200FFF7EDFA5A4B93F8343013F0400F0CD0574B93F8333002AA134413F8083C032B03D10820FFF767FC18E0504C94F858
:4018C000333002AA134413F8080CFFF75DFC94F8343013F0400F05D04A4A137843F04003137004E0474A137803F0BF031370444B93F83630012B07D1464B1B7813F0100FE3
:4019000002D10020FFF74AFB3D4C94F83700FFF7B5FC94F83930012B01D1FFF799FA384B93F838304FF04022127802F030029A4206D04FF040210A7802F0CF0213430B70DD
:401940002F4B93F83E30012B1AD10020FFF7EAFA5020FFF7D5FC304B1B78AB240EE00120FFF7CEFC2C4B1B7813F0010F04D02A4B1B7813F0010F03D1013CA4B2002CEED1A2
:401980001F4B93F83230012B0ED8214B1B78DBB21B4A92F83A00834201D0FFF775FA184B93F83200FFF764FA154B93F8363033B9184B1B7813F0100F01D0FFF73BFA174BE7
:4019C0001A78013B1B7843EA02230D4A908F834201D0FFF75FFA12480278094B93F8351002F03F020A43027093F830100D4A117093F831200C4B1A7002B010BD8425000067
:401A00008881FF1F004200400B4000401042004004400040A0430040254200400740004000480040A1430040A243004070B506460C4600F0CDF80546334B1B7813F0080F4C
:401A400006D1324A137803F01F03137036B102E000F0C2F870BD0020FFF72EFBFFF75AFC2B4A11782B4B1971C4F30711117001321178597104F00F011170013211789971A6
:401A8000C4F300341470244B1B7813F0070F04D10122204B83F82E200DE01E49002381F82E301D4B1A7802F0070281F82D201A7802F0F8021A70144A137803F0F80343F055
:401AC00003031370137800BF00BF30BF114B93F82E30012B08D010490B780E4A92F82D2003F0F80313430B70FFF702FD094B1979074A11705979013211709A79074B1A7030
:401B0000284600F069F870BD9343004083460040984300408881FF1F004200409A43004038B5054600F054F8074B1978074A92F842300B4303F0070423EA050382F84230C8
:401B400000F04AF8204638BD904300408881FF1F38B50546134C237803F0FD032370FFF7D1F9237813F0010F0FD00F4B1B78DBB2AB4216D0227802F0FE0222700A4A157055
:401B8000227842F00102227038BD074B1B78DBB29D4201D0044B1D70024A137843F00103137038BD8243004080430040CBB20370C1F307234370C1F307418170704700BF5F
:401BC0000230800803D000BF01380046FCD17047EFF3108072B6704780F31088704700BF38B50446FFF7F4FF05460F2C07D81A4A137803F01F0343F04003137028E0202CEE
:401C000007D8154A137803F01F0343F0800313701EE0312C07D8104A137803F01F0343F0C003137014E0422C05D80B4A137803F01F0313700CE0532C07D8074A137803F010
:401C40001F0343F02003137002E00020FFF734FA2846FFF7C1FF38BD00480040014B1868704700BF4081FF1F0E4B70B51E460E4C0025E41AA410A54204D056F82530984731
:401C80000135F8E700F0A0FC084B094C1E46E41AA4100025A54204D056F8253098470135F8E770BDD4250000D4250000D4250000DC25000010B5431E0A44914204D011F811
:401CC000014B03F8014FF8E710BD03460244934202D003F8011BFAE7704700000EB400B54FF402719CB0ADF814106FF00041049107914FF6FF711DAB02900690084853F86D
:401D0000042BADF81610006802A9019300F064F8029B00221A701CB05DF804EB03B070474081FF1F2DE9F0478E6882469E420C46914698463ED88A8912F4906F3AD025685D
:401D4000096902236F1A656905EB450595FBF3F57B1C43449D4238BF1D4653050FD5294600F040FB064698B13A462169FFF7A2FFA38923F4906343F08003A38113E02A46ED
:401D800000F08EFB064670B92169504600F0DEFA0C23CAF80030A3894FF0FF3043F04003A381BDE8F08726613E44266046466561ED1BA560464528BF464649463246206861
:401DC00000F0A8FAA36800209B1BA36023681E442660BDE8F08700002DE9F04F9DB003938B8980461C060D4616460DD50B695BB9402100F0F7FA2860286118B90C23C8F87E
:401E00000030CDE040236B610023099320238DF82930DFF89CB130238DF82A3037463C4614F8013B1BB9B7EB060910D003E0252BF9D02746F3E74B46324629464046FFF77D
:401E400071FF013000F0A780099B4B4409933B78002B00F0A08000234FF0FF3204930793059206938DF853301A930126052221784E4800F041FA671C049B38B14B4A3C467A
:401E8000801A06FA00F018430490EFE7D90644BF20228DF853201A0744BF2B228DF8532022782A2A03D0079A00210A200BE0039A111D12680391002A10DA524243F0020000
:401EC000079204900BE027463B780134303B092B03D800FB02320121F5E701B107923B782E2B1ED17B782A2B0AD1039B02371A1D1B680392002BB8BF4FF0FF33059310E0A4
:401F0000002319460593781C0A2407463A780130303A092A03D804FB01210123F5E703B1059103223978224800F0E6F940B14023CBEB000003FA00F0049B013718430490E6
:401F4000397806221B487E1C8DF8281000F0D4F988B1194B33B9039B073323F007030833039314E003AB00932A46144B04A94046AFF3008007E003AB00932A460F4B04A9CA
:401F8000404600F093F8B0F1FF3F824603D0099B5344099342E7AB895B0601D4099801E04FF0FF301DB0BDE8F08F00BF952500009B2500009F25000000000000251D00001C
:401FC0002DE9F04791461F460A698B6806469342B8BF1346C9F8003091F843200C46DDF8208012B10133C9F800302368990642BFD9F800300233C9F80030256815F0060586
:4020000010D104F1190A07E00123524639463046C04701301AD00135E368D9F800209B1A9D42F1DB94F843302268003318BF012392060FD5E118302081F843005A1C94F8E1
:4020400045102244023382F8431003E04FF0FF30BDE8F08704F1430239463046C0470130F4D02268D9F80050E36802F00602042A08BF5D1B2269A3680CBF25EAE5750025BF
:402080009342C4BF9B1AED184FF000091A344D4509D00123224639463046C0470130D5D009F10109F3E70020BDE8F0872DE9F04317460A7E85B06E2A984606460C460C9B77
:4020C00001F1430E00F0AE8011D8632A22D009D8002A00F0BB80582A40F0CA8081F84520834955E0642A1ED0692A1CD0C0E0732A00F0B08009D86F2A2ED0702A40F0B88034
:402100000A6842F020020A603EE0752A24D0782A3AD0ADE01A6801F14205111D1960136884F84230A8E021681A6811F0800F02D0111D196008E011F0400F02F10401196075
:4021400002D0B2F9003000E01368002B3CDA2D225B4284F8432037E021681A6811F0800F02D0111D196007E011F0400F02F10401196001D0138800E01368227E5C496F2AD3
:4021800014BF0A2208221BE078225A4984F845202268186812F0800F00F104051D6003D1550601D5038800E00368D00744BF42F0200222601BB9226822F0200222601022FA
:4021C000002084F8430001E049490A226568002DA56008DB206820F0040020602BB9002D7DD175460CE0002B79D07546B3FBF2F002FB1033CB5C05F8013D03460028F5D1C5
:40220000082A0BD12368DA0708D5236962689A42DEBF302305F8013C05F1FF35C5EB0E0323612EE008681A6810F0800F496903D0101D1860136808E010F0400F02F104001A
:402240001860136801D0198000E0196000232361754616E01A68111D1960156800216268284600F049F808B1401B6060636804E004F1420584F8422001232361002384F83C
:402280004330CDF800803B4603AA21463046FFF797FE013002D14FF0FF3026E023692A4639463046C0470130F5D023689B0710D5002504F1190907E001234A46394630468C
:4022C000C0470130E7D00135E368039A9B1A9D42F2DBE068039B9842B8BF184605E00B7804F1420584F842308AE705B0BDE8F083A6250000B725000010B5C9B2024490420C
:40230000034605D01C7801308C42F8D1184610BD002010BD884210B501EB020301D8421E0BE09842FBD28118D21AD34204D013F8014D01F8014DF8E710BD994204D011F84E
:40234000014B02F8014FF8E710BD000038B50546002944D051F8043C0C1F002BB8BFE41800F0D4F81E4A1368114613B96360146030E0A3420DD92268A018834201BF186839
:402380005B681218226063600C6023E0A24203D813465A68002AF9D118681918A1420BD12168014458188242196013D110685268014419605A600DE002D90C232B6009E0CA
:4023C00021686018824201BF106852680918216062605C602846BDE8384000F098B838BDD081FF1F70B5CD1C25F0030508350C2D38BF0C25002D064601DBA94202D90C23C4
:40240000336046E000F082F8234B1C681A462146A1B10B685B1B0ED40B2B03D90B60CC18CD501EE08C420BBF63684B681360636018BF0C4615E00C464968E9E7174C2368FC
:402440001BB9304600F052F820602946304600F04DF8431C18D0C41C24F00304A0420DD12560304600F053F804F10B00231D20F00700C31A0ED05A42E25070BD211A304648
:4024800000F034F80130EBD10C233360304600F03EF8002070BD00BFD081FF1FCC81FF1FF8B5074615460E4621B91146BDE8F840FFF798BF1AB9FFF749FF2846F8BD00F0A7
:4024C00027F885420ED929463846FFF78BFF044650B131462A46FFF7EDFB31463846FFF735FF01E03046F8BD2046F8BD38B5064C0023054608462360FDF7BEFF431C02D1EB
:40250000236803B12B6038BDD481FF1F7047704751F8040C0028BEBF091851F8043CC018043870470000000048656C6C6F000000496E7465727275707400000057616B653F
:402540000000000063203D2025752064203D202575000000305100404000C05100401000F0510040100000000140001000140140000800400140000A004C0140000200503B
:40258000014020000C061803303E4A00020103000405064300232D302B2000686C4C0065666745464700303132333435363738394142434445460030313233343536373818
:4025C0003961626364656600F8B500BFF8BC08BC9E4670474D000000F5040000F8B500BFF8BC08BC9E4670472900000000260000C880FF1F80000000900000000000000044
:4026000000000000D881FF1F0000E02EC05D00001800000000366E010000000000000000000000000000000000000000000000000000000000000000932500000000000083
:402640000000000000000000000000000000000000000000000000000000000000000000000000000000000000000000000000000000000000000000E080FF1F00000000DC
:40268000000000000000000000000000000000000000000000000000000000000000000000000000000000000000000000000000000000000000000000000000000000001A
:4026C00000000000000000000000000000000000000000000000000000000000000000000000000000000000000000000000000000000000000000000000000000000000DA
:402700000000000000000000000000000000000000000000000000000000000000000000000000000000000000000000000000000000000000000000000000000000000099
:402740000000000000000000000000000000000000000000000000000000000000000000000000000000000000000000000000000000000000000000000000000000000059
:020000040003F7
:0200000480007A
:400000000152004003640040540001403001014044020140330301403E040140320501400307014001150140031701400418014001190140021B0140054001400841014063
:400040000842014006430140064801400350014001510140000881678367840D0D011101350139203F1040124106455E46C04702481F49FF4AFF4BFF4DA04F015018520187
:400080005301561059045A045B045F016040628064406540668068406A506BA86C406D206E506FA8821883018E03940198019A049C08A101A201AC0CB001B202B40CB501E1
:4000C000B610BE01BF10C045C106C50CC605C72EC837C9FFCAFFCBFFCDA0CF01D018D280D407D804D904DA04DB04DF05E040E280E440E540E680E840EA50EBA8EC40ED20EA
:40010000EE50EFA805820E2A154016801D021E2A1F40200427082C082D202F40300238803F0240044201450249044A884D424E084F0650C852205440560857025C405F18FD
:4001400066086704694076807D4081808712C090C2E0C490CA80CC01CE88D08CD234D670D860DE104061410449FF4AFF4BFF4F0150185201530156185A045B045F016040E4
:40018000624064406540668068806A806C806E80800184088F01900C910498019A049F06A218A501AA03AE01B002B102B210B301B40CB601B704BE40BF44C025C104C9FFDC
:4001C000CAFFCBFFCD83CE03CF01D018D280D407D804D904DA04DB04DF05E040E240E440E540E680E880EA80EC80EE80010A08010A040C0310841340190A1A25224529085D
:400200003281388040044301460147014A024C0459205A885D405F1061046220640465806F0173407801814090809440960199249D80A0C0A2A1A402A580A608C00CC20A9F
:40024000C40BCA02CC09CE08D095D228D63ED836DE01040106080C1F0D01140716101C021E4822272C042E482F01304032183407362037013E013F404025410445EC472025
:40028000482349FF4AFF4BFF4D834E034F0150185201530154015610580459045A045B045F056040624064406540668068806A806C806E808F019201A101B101B601BF01D8
:4002C000D201D618D804D904DB04DE08DF01000403010A110F801241180C19401A511F802180244029402F803A403C803F804084430149054A02520359055A405D4066400F
:4003000068026F0278807E1087029220944C97109B019E01A040A402A580A60AAA01C005C215C409CA88CE18D005D208D61BD810DE489710A608A940B20887109710A60826
:40034000B880BE40D804DF011A01B201EE80324037808240CC30E68000405340571082049F80C040D460E4208740904097809F80A604AB10E210EE8027809F80A604A84001
:40038000C880EC20210426048504A604C8C0E010000108010A01000B040A0A000A000000000B0B0000000000007F7F00000000000000000000000000000000000000000099
:4003C00000000000000000000000000000000000000000000000000000000000000000000000000000000000000000000000000000000000000000000000000000000000FD
:4004000000000000000000000000000000000000000000000000000000000000000000000000000000000000000000000000000000000000000000000000000000000000BC
:40044000000000000000000000000000000000000000000000000000000000000000000000000000000000000000000000000000000000000000000000000000000000007C
:40048000000000000000000000000000000000000000000000000000000000000000000000000000000000000000000000000000000000000000000000000000000000003C
:0200000490006A
:0400000000004005B7
:0200000490105A
:04000000BC90ACAF55
:0200000490303A
:02000000566C3C
:0200000490402A
:4000000000000000000000000000000000000000000000000000000000000000000000000000000000000000000000000000000000000000000000000000000000000000C0
:400040000000000000000000000000000000000000000000000000000000000000000000000000000000000000000000000000000000000000000000000000000000000080
:400080000000000000000000000000000000000000000000000000000000000000000000000000000000000000000000000000000000000000000000000000000000000040
:4000C0000000000000000000000000000000000000000000000000000000000000000000000000000000000000000000000000000000000000000000000000000000000000
:0200000490501A
:0C00000000012E16106900012E2566D5A7
:00000001FF