:400000000080002011000000D9030000D903000008B5044B1A6803F53F5302331A6000F0FBF900BFFA46004010B5054C237833B9044B13B10448AFF300800123237010BDCB
:400040004881FF1F00000000381B0000084B10B51BB108490848AFF300800848036803B910BD074B002BFBD0BDE81040184700BF000000004C81FF1F381B0000C880FF1F5C
:400080000000000010B584B062B600F0AFFD00F083FA01F0B1F80C2001F062F801F06CF801F0A0F800F0D0FF0021084601F0B2F8174801F047F80022164901A801F018F9B3
:4000C00000F0F8FD80B24FF6E853984202D8C72803D904E04FF47A7001E04FF47A400E4CA4FB0030840922460A4901A801F000F9012001F035F800F0A7FF0021084601F0C2
:4001000089F801A801F01EF8204600F0F3F9D7E73C1B0000481B0000FDC00FFCFEE700BFF0B40022174611E050F82760F3B226F0FF0608E001EB420511F812406D78A55570
:400140000132013BDBB2002BF4D10137142FEBD9F0BC70470A4B1B78DBB203F00701094A11701B09013213700822074B1A708023064A1370583213704422054B1A70704753
:40018000CF0100496E5800403D510040005B00407658004008B50A46002101F0A0F808BD08B501F091F808BD38B500242F4B1C80502202331A70012202331A801822023378
:4001C0001A7004222A492B48FFF7EAFF02222A4B1A7008224FF040231A70032103F500731970264B1B78DBB225490B70254B1A8041F25122023B1A8019250CE0224B1B78CE
:4002000003F0010343EA440404F003044FF4F07001F01EF8013D0DB1032CEFD115B90320FFF77CFF194B4FF480721A8007221A70002217490A704820023108701A700222BD
:40024000033B1A7004220A331A70124A137843F003031370013A137843F001031370013A137843F08003137038BD00BF8040004078010048004100400043004008010049DC
:40028000A146004022420040254200400440004006400040A2430040012807D8044B53F820201844017A13780B431370704700BF581B0000012808D8044B53F82020184460
:4002C000017A137823EA010313707047581B000038B572B62E4A137843F00403137000240BE02C4863001A19510001440A46098AD068FFF74FFF0134E4B2072CF1D9264920
:400300004FF09040FFF70CFF0A22244B1A70244A137843F0020313701032137843F002031370204C237843F040032370A2F58632513A137843F01003137008221A491B481E
:40034000FFF72EFF08221A491A48FFF729FF082219491A48FFF724FF082219491948FFF71FFF194A137843F008031370174D61232B70FFF719FF81232B700122144B1A70BA
:40038000FFF7E8FE0E2221461248FFF709FF38BDE8460040581B0000540000488358004003500140A04300405801004802510040600100481251004068010048225100404A
:4003C0007001004832510040224300400048004004000840B043004008B500F049FF03680C2B00D1FEE7FEE708B5094B1A681044084BC31A802B02DC054B186005E000F066
:4004000037FF0C2303604FF0FF32104608BD00BFCC80FF1F9881FF1F08B5104E104D16E029686B68AC68002204E051F8040B43F8040B0432A242F8D1E868002203E0002122
:4004400043F8041B04328242F9D11035013E002EE6D100F013FFFFF715FEFEE701000000F01B000008B5104A104B1A60104A136843F40073136000230AE0032B03D80D4AAE
:4004800052F8231000E00C490C4A42F8231001332F2BF2D90A4B1A780A4B1A70074A0A4B1A60FFF715FF08BD0004FA050CED00E014ED00E000000000D90300000080FF1F82
:4004C000BC760040C080FF1F08ED00E0024A137843F080031370704775650040014B1880704700BF086A0040014B1880704700BF886A0040014B1880704700BF486A004092
:40050000014B1870704700BF85650040014B1878704700BF65650040014B188880B27047A86A004008B501E0FFF7F6FFFFF7EEFF10F0100FF8D108BD10B5154A137803F009
:40054000C00343F0090313701F32137843F001031370104C237843F00103237040F2E730FFF7BCFF40F2E730FFF7BEFF7F20FFF7C1FF0020FFF7C4FF00F072FE237843F04D
:400580001003237000F070FEFFF7CCFF10BD00BF756500409565004008B5054B1B7823B9FFF7CAFF0122024B1A70FFF78FFF08BD6481FF1F38B59DF81040651EEDB2032DF1
:4005C00051D8013809282ED8DFE800F0052D2D052D2D0F192D230F2B03D92548007840B222E02448007840B21EE00F2B03D92248007840B218E02148007840B214E00F2BCF
:4006000003D91F48007840B20EE01E48007840B20AE00F2B03D91C48007840B204E01B48007840B200E0002001EB401101FB02F2D20B91B20D2B0BD8C3F10E0192B20A4116
:4006400091B2621E124800EB82020133937005E0631E0F4A02EB83030F229A70013C0C4B23F8241038BD002000F064FC38BD00BF180100491C010049190100491D010049BC
:400680001A0100491E0100491B0100491F0100496881FF1FF8B5074600F0E2FD06460D4D2B7843F003032B700B4C237843F0030323700A4B1F70032000F054FC2B7803F018
:4006C000FC032B70237803F0FC032370304600F0CBFDF8BDF8460040F946004092580040F8B504460022C14B1A7401285DD13822BF4B1A70042202331A70062201331A7073
:40070000002501331D7001331D703F2201331A7002331D7001331D7001331D7001260A331E70502203F527631A700A2201331A702C2201331A7001331D70442203331A7062
:40074000482201331A7001331E7002331E70112201331A70192201331A70972201331A705220FFF797FF5822A24B1A7001331D70052705331F70022201331A7001331D7025
:4007800001331D70284600F0C1FA43F233329A4B1A603146384600F0DDFA3146252000F05DFB96491D2000F0E7FB022C5DD138228F4B1A70042202331A70062201331A70D3
:4007C000002501331D7001331D703F2201331A7002331D7001331D7001331D7001260A331E70502203F527631A70272201331A702C2201331A7001331D70552203331A7074
:400800005A2201331A70052701331F7002331E70112201331A70192201331A70972201331A704420FFF736FF5822724B1A7001331D7005331F70022201331A7001331D70F0
:4008400001331D70284600F061FA4FF47A426A4B1A603146384600F07DFA3146252000F0FDFA67491D2000F087FB032C5DD138225F4B1A70042202331A70062201331A70BC
:40088000002501331D7001331D703F2201331A7002331D7001331D7001331D7001260A331E70502203F527631A70272201331A702C2201331A7001331D70552203331A70B3
:4008C0005A2201331A70052701331F7002331E70112201331A70192201331A70972201331A704420FFF7D6FE5822424B1A7001331D7005331F70022201331A7001331D70C1
:4009000001331D70284600F001FA4FF47A423A4B1A603146384600F01DFA3146252000F09DFA38491D2000F027FB042C5DD138222F4B1A70042202331A70062201331A7009
:40094000002401331C7001331C703F2201331A7002331C7001331C7001331C7001250A331D70502203F527631A70272201331A702C2201331A7001331C70552203331A70FB
:400980005A2201331A70052601331E7002331D70112201331A70192201331A70972201331A704420FFF776FE5822124B1A7001331C7005331E70022201331A7001331C7096
:4009C00001331C70204600F0A1F94FF47A420A4B1A602946304600F0BDF92946252000F03DFA09491D2000F0C7FAF8BD6881FF1F004E0040945800408C81FF1FDD0C000049
:400A0000E10C0000E50C0000E90C00002DE9F04182B0394D4FF0010885F80080374E00247474102000F084F9102000F005FA07211D2000F0B5FA0427314B1F7001331C7058
:400A400007331C702F4A137843F0180313702E4B1C7003F2F5231C7001331C700A22A3F209331A7001331C7002331C705B2205331A705E2201331A7004331C701422A3F666
:400A80008C231A70CDF8008010234FF4004248F6F0510220FFF78EFD0223009310234FF4004249F2DA012046FFF784FD0323009310234FF4004249F2DA012046FFF77AFD21
:400AC000009710234FF4004249F2DA012046FFF771FD2B78013B06EB83039A780B4B1A702B78013B36F82320094B1A802878FFF7F7FD02B0BDE8F081D080FF1F6881FF1F7A
:400B000096580040075B0040935800400E4E00400C4E004070B500F0A3FB06462A4B1B782A4B1A7842F001021A701A7842F010021A7010331A7842F001021A701A7842F0FF
:400B400010021A70224D2B7843F002032B70214C237843F0020323701F4A137843F003031370032000F0FEF92B7803F0FD032B70237803F0FD032370184A137843F00603EC
:400B800013707A22164B1A70164A137843F0010313701032137843F0010313700F3A137843F0010313701032137843F0010313704FF000530C4A1360A2F5C07213603046DD
:400BC00000F052FB70BD00BFD080FF1FAA430040F8460040F9460040915800407758004082580040A143004080E200E008B5084B9B7C4BB9064BDB7C13F0FF0F01D1FFF7D0
:400C000005FF0122024B9A74FFF784FF08BD00BF6881FF1F024A137843F0010313707047004E0040024A137803F0FE0313707047004E0040094B1B7C13F0FF0F03D0074BA4
:400C40005B7CDBB203E0064B1B7803F00103012B01D00028EED01846704700BF6881FF1F014E00400E4B1B7803F00303012B03D80C4B188880B209E00A4A12780A49087856
:400C800042EA0020032B01D1084B1B78084B1B7C13F0FF0F02D00022054B5A7400B27047144E0040104E0040114E0040124E00406881FF1F10B5084A137843F004031370A7
:400CC000FFF7A8FF0020FFF7B5FFFFF7CBFF0446FFF7A8FF204610BD014E0040704700BF704700BF704700BF704700BF10B5002404E02046FFF7DEFA0134E4B2012CF8D982
:400D0000FF22014B1A7010BDD180FF1F10B50446FFF7ECFF2046FFF7BFFA014B1C7010BDD180FF1F014B188880B2704780400040034B1A7800F0F80010431870704700BF79
:400D400082400040024B187800F00700704700BF8240004070B505460E46FFF7F3FF0446FFF7E0FFA84256D02B4B1B7803F0010294B900B185B938B9284B1D80284A137811
:400D800003F0BF03137070BD254A137843F040031370224B1D8070BD22B3002321490B7001240F310C7004310B700C390B7803F07F030B701A4B1B7813F0080F00D08DB956
:400DC000194B18800721013B1970164B1B7813F0010FFAD110490B7803F0FE030B700021104B19700C4B1B7813F0010F0DD00E4B1D800EB1032200E001220A4B1A70094BFE
:400E00001B7813F0010FFAD170BD044B1D8002490B7813430B7070BDA243004080400040824000400140004002400040014B188880B2704700410040034B1A7800F0F80014
:400E400010431870704700BF02410040024B187800F00700704700BF0241004070B505460E46FFF7F3FF0446FFF7E0FFA84256D02B4B1B7803F0010294B900B185B938B9CA
:400E8000284B1D80284A137803F0BF03137070BD254A137843F040031370224B1D8070BD22B3002321490B70012413310C7004390B7008390B7803F07F030B701A4B1B7870
:400EC00013F0080F00D08DB9194B18800721013B1970164B1B7813F0010FFAD110490B7803F0FE030B700021104B19700C4B1B7813F0010F0DD00E4B1D800EB1032200E023
:400F000001220A4B1A70094B1B7813F0010FFAD170BD044B1D8002490B7813430B7070BDA14300400041004002410040014000400240004001BE704710B5044605E0084B1D
:400F4000186800F085F9A4F50044B4F5004FF6D8034B586800FB04F000F07AF910BD00BFD480FF1F08B5034B1B7A00FB03F000F06FF908BDD480FF1F70B504460E46074B50
:400F80001D681F2802D90020FFF7D4FF04F01F04103455F8240045F8246070BD08ED00E038B504460D46072902D90020FFF7C2FF1F2C02D90020FFF7BDFF04F01F0000F1AA
:400FC000604000F564406D01EDB2057038BD00BF10B50B4C237803F09F032370237803F0F00323702378184340F0100020700120FFF7B8FF237803F0EF03237010BD00BF5C
:401000002051004038B505460E4C237843F020032370237803F0BF0323700020FFF7A2FF237803F0F003237023781D4345F0100525700120FFF796FF237803F0EF032370A2
:4010400038BD00BF2051004070B5354B1A7802F08002D2B21A7033490A7802F0F00242F00F020A7001310A7802F0F0020A7001310A7802F0F0020A701A7802F0DF021A70A0
:401080001A7842F040021A704FF4CA760020FFF769FF234D2B7843F010032B700120FFF761FF214B1C78E4B22B7803F0EF032B700020FFF757FF04F00804E4B22B7843F0A3
:4010C00010032B700120FFF74DFF2B7803F0EF032B7014B90A20FFF745FF013E0CB1002ED4D10F4A137803F0BF031370137803F08003DBB213700232137803F0F003137067
:401100000132137803F0F00343F00F0313700132137803F0F00343F00F03137070BD00BF20510040225100402151004010B50446FFF78AFF2009FFF765FF04F00F00FFF7CB
:4011400061FF10BD38B505460078012404E0FFF7EDFF285D0134E4B20028F8D138BD00BF10B50446FFF770FF2009FFF731FF04F00F00FFF72DFF10BD08B52820FFF7DCFE28
:401180000320FFF725FF0520FFF7D6FE0320FFF71FFF0F20FFF7D0FE0320FFF719FF0120FFF7CAFE0220FFF713FF0520FFF7C4FE0620FFF7D5FF0E20FFF7D2FF2C20FFF79B
:4011C000CFFF0820FFF7CCFF0120FFF7C9FF0C20FFF7C6FF0320FFF7C3FF0520FFF7ACFE08BD00BF08B50C20FFF7BAFF0122014B1A7008BD8081FF1F08B5054B5B7823B91D
:40120000FFF7BAFF0122024B5A70FFF7EBFF08BD8081FF1F08B5032819D8DFE800F002070D1381F08000FFF79BFF08BDA1F14000C0B2FFF795FF08BDA1F16C00C0B2FFF709
:401240008FFF08BDA1F12C00C0B2FFF789FF08BD0230800803D000BF01380046FCD17047EFF3108072B6704780F31088704700BF014B1868704700BF4481FF1F0E4B70B5E4
:401280001E460E4C0025E41AA410A54204D056F8253098470135F8E700F098FC084B094C1E46E41AA4100025A54204D056F8253098470135F8E770BDD81B0000D81B00007B
:4012C000D81B0000E01B000010B5431E0A44914204D011F8014B03F8014FF8E710BD03460244934202D003F8011BFAE7704700000EB400B54FF402719CB0ADF814106FF013
:401300000041049107914FF6FF711DAB02900690084853F8042BADF81610006802A9019300F064F8029B00221A701CB05DF804EB03B070474481FF1F2DE9F0478E68824661
:401340009E420C46914698463ED88A8912F4906F3AD02568096902236F1A656905EB450595FBF3F57B1C43449D4238BF1D4653050FD5294600F040FB064698B13A46216955
:40138000FFF7A2FFA38923F4906343F08003A38113E02A4600F08EFB064670B92169504600F0DEFA0C23CAF80030A3894FF0FF3043F04003A381BDE8F08726613E4426604D
:4013C00046466561ED1BA560464528BF464649463246206800F0A8FAA36800209B1BA36023681E442660BDE8F08700002DE9F04F9DB003938B8980461C060D4616460DD537
:401400000B695BB9402100F0F7FA2860286118B90C23C8F80030CDE040236B610023099320238DF82930DFF89CB130238DF82A3037463C4614F8013B1BB9B7EB060910D023
:4014400003E0252BF9D02746F3E74B46324629464046FFF771FF013000F0A780099B4B4409933B78002B00F0A08000234FF0FF3204930793059206938DF853301A930126F0
:40148000052221784E4800F041FA671C049B38B14B4A3C46801A06FA00F018430490EFE7D90644BF20228DF853201A0744BF2B228DF8532022782A2A03D0079A00210A2008
:4014C0000BE0039A111D12680391002A10DA524243F00200079204900BE027463B780134303B092B03D800FB02320121F5E701B107923B782E2B1ED17B782A2B0AD1039B30
:4015000002371A1D1B680392002BB8BF4FF0FF33059310E0002319460593781C0A2407463A780130303A092A03D804FB01210123F5E703B1059103223978224800F0E6F98A
:4015400040B14023CBEB000003FA00F0049B013718430490397806221B487E1C8DF8281000F0D4F988B1194B33B9039B073323F007030833039314E003AB00932A46144B0B
:4015800004A94046AFF3008007E003AB00932A460F4B04A9404600F093F8B0F1FF3F824603D0099B5344099342E7AB895B0601D4099801E04FF0FF301DB0BDE8F08F00BFB2
:4015C000961B00009C1B0000A01B000000000000391300002DE9F04791461F460A698B6806469342B8BF1346C9F8003091F843200C46DDF8208012B10133C9F80030236885
:40160000990642BFD9F800300233C9F80030256815F0060510D104F1190A07E00123524639463046C04701301AD00135E368D9F800209B1A9D42F1DB94F843302268003305
:4016400018BF012392060FD5E118302081F843005A1C94F845102244023382F8431003E04FF0FF30BDE8F08704F1430239463046C0470130F4D02268D9F80050E36802F0AF
:401680000602042A08BF5D1B2269A3680CBF25EAE57500259342C4BF9B1AED184FF000091A344D4509D00123224639463046C0470130D5D009F10109F3E70020BDE8F0873B
:4016C0002DE9F04317460A7E85B06E2A984606460C460C9B01F1430E00F0AE8011D8632A22D009D8002A00F0BB80582A40F0CA8081F84520834955E0642A1ED0692A1CD0F7
:40170000C0E0732A00F0B08009D86F2A2ED0702A40F0B8800A6842F020020A603EE0752A24D0782A3AD0ADE01A6801F14205111D1960136884F84230A8E021681A6811F059
:40174000800F02D0111D196008E011F0400F02F10401196002D0B2F9003000E01368002B3CDA2D225B4284F8432037E021681A6811F0800F02D0111D196007E011F0400F42
:4017800002F10401196001D0138800E01368227E5C496F2A14BF0A2208221BE078225A4984F845202268186812F0800F00F104051D6003D1550601D5038800E00368D0070D
:4017C00044BF42F0200222601BB9226822F0200222601022002084F8430001E049490A226568002DA56008DB206820F0040020602BB9002D7DD175460CE0002B79D0754619
:40180000B3FBF2F002FB1033CB5C05F8013D03460028F5D1082A0BD12368DA0708D5236962689A42DEBF302305F8013C05F1FF35C5EB0E0323612EE008681A6810F0800F8E
:40184000496903D0101D1860136808E010F0400F02F104001860136801D0198000E0196000232361754616E01A68111D1960156800216268284600F049F808B1401B606083
:40188000636804E004F1420584F8422001232361002384F84330CDF800803B4603AA21463046FFF797FE013002D14FF0FF3026E023692A4639463046C0470130F5D02368D9
:4018C0009B0710D5002504F1190907E001234A4639463046C0470130E7D00135E368039A9B1A9D42F2DBE068039B9842B8BF184605E00B7804F1420584F842308AE705B0DA
:40190000BDE8F083A71B0000B81B000010B5C9B202449042034605D01C7801308C42F8D1184610BD002010BD884210B501EB020301D8421E0BE09842FBD28118D21AD3422B
:4019400004D013F8014D01F8014DF8E710BD994204D011F8014B02F8014FF8E710BD000038B50546002944D051F8043C0C1F002BB8BFE41800F0D4F81E4A1368114613B9C4
:401980006360146030E0A3420DD92268A018834201BF18685B681218226063600C6023E0A24203D813465A68002AF9D118681918A1420BD12168014458188242196013D190
:4019C00010685268014419605A600DE002D90C232B6009E021686018824201BF106852680918216062605C602846BDE8384000F098B838BD8881FF1F70B5CD1C25F00305E9
:401A000008350C2D38BF0C25002D064601DBA94202D90C23336046E000F082F8234B1C681A462146A1B10B685B1B0ED40B2B03D90B60CC18CD501EE08C420BBF63684B6833
:401A40001360636018BF0C4615E00C464968E9E7174C23681BB9304600F052F820602946304600F04DF8431C18D0C41C24F00304A0420DD12560304600F053F804F10B00FB
:401A8000231D20F00700C31A0ED05A42E25070BD211A304600F034F80130EBD10C233360304600F03EF8002070BD00BF8881FF1F8481FF1FF8B5074615460E4621B91146D1
:401AC000BDE8F840FFF798BF1AB9FFF749FF2846F8BD00F027F885420ED929463846FFF78BFF044650B131462A46FFF7EDFB31463846FFF735FF01E03046F8BD2046F8BD08
:401B000038B5064C0023054608462360FEF76CFC431C02D1236803B12B6038BD9081FF1F7047704751F8040C0028BEBF091851F8043CC018043870470000000048656C6C44
:401B40006F20576F726C640072656164414443203D20257500000000035B00402443004040000000405100403000C05100401000F051004010000000014000100014014035
:401B8000000800400140000A004C014000020050014020004300232D302B2000686C4C006566674546470030313233343536373839414243444546003031323334353637E2
:401BC000383961626364656600000000F8B500BFF8BC08BC9E4670474D00000065040000F8B500BFF8BC08BC9E46704729000000001C0000C880FF1F8000000050000000F0
:401C0000000000009881FF1F01FF00000000E02EC05D00001800000000366E010000000000000000000000000000000000000000000000000000000000000000941B0000D6
:401C4000000000000000000000000000000000000000000000000000000000000000000000000000000000000000000000000000000000000000000000000000E480FF1FE2
:401C80000000000000000000000000000000000000000000000000000000000000000000000000000000000000000000000000000000000000000000000000000000000024
:401CC00000000000000000000000000000000000000000000000000000000000000000000000000000000000000000000000000000000000000000000000000000000000E4
:401D000000000000000000000000000000000000000000000000000000000000000000000000000000000000000000000000000000000000000000000000000000000000A3
:401D40000000000000000000000000000000000000000000000000000000000000000000000000000000000000000000000000000000000000000000000000000000000063
:020000040003F7
:0200000480007A
:40000000025200400165004004060140010701403F1401401F1501400117014001190140011B01400241014001420140014301400244014001450140034601400247014029
:400040000348014003490140034C0140024D01400250014000010101850D38083E0458045F011E204030410449FF4AFF4BFF4DA04F0450185A045D015F01604062C06440E9
:40008000654066C068C06AC06CC06EC0820283018A069E0CAD01AE01B008B201B402B604B701BE10C030C104C5D0C602C710C826C9FFCAFFCBFFCDAFCE0FCF04D018D28031
:4000C000D405D804D904DA04DB04DC11DD11DF01E040E2C0E440E540E6C0E8C0EAC0ECC0EEC0041006800F0217401C101D081E0A1F0226402F023F02401042804508468000
:400100004F01568057015E885F0177408E01C050C280C480CA10CE80D0C3D6D0E210EC10B210E880EC105501D620A501A5017C20DE019C2045089C20D0019C20A508251063
:40014000A501C8208D01A501B510A508B020E801B508EC0810021A020001010001000000000B0B0000000000007F7F00000000000000000000000800250018010000000056
:40018000000000000000000000000000000000000000000000000000000000000000000000000000000000000000000000000000000000000000000000000000000000003F
:4001C00000000000000000000000000000000000000000000000000000000000000000000000000000000000000000000000000000000000000000000000000000000000FF
:4002000000000000000000000000000000000000000000000000000000000000000000000000000000000000000000000000000000000000000000000000000000000000BE
:40024000000000000000000000000000000000000000000000000000000000000000000000000000000000000000000000000000000000000000000000000000000000007E
:0200000490006A
:0400000000004005B7
:0200000490105A
:04000000BC90ACAF55
:0200000490303A
:020000005AFEA6
:0200000490402A
:4000000000000000000000000000000000000000000000000000000000000000000000000000000000000000000000000000000000000000000000000000000000000000C0
:400040000000000000000000000000000000000000000000000000000000000000000000000000000000000000000000000000000000000000000000000000000000000080
:400080000000000000000000000000000000000000000000000000000000000000000000000000000000000000000000000000000000000000000000000000000000000040
:4000C0000000000000000000000000000000000000000000000000000000000000000000000000000000000000000000000000000000000000000000000000000000000000
:0200000490501A
:0C00000000012E16106900012E206B6715
:00000001FF